{
  "contractName": "VotingContract",
  "abi": [
    {
      "inputs": [],
      "stateMutability": "nonpayable",
      "type": "constructor"
    },
    {
      "anonymous": false,
      "inputs": [
        {
          "indexed": true,
          "internalType": "string",
          "name": "vidHash",
          "type": "string"
        },
        {
          "indexed": false,
          "internalType": "string",
          "name": "vid",
          "type": "string"
        },
        {
          "indexed": false,
          "internalType": "string",
          "name": "vote",
          "type": "string"
        }
      ],
      "name": "VoteCast",
      "type": "event"
    },
    {
      "inputs": [
        {
          "internalType": "uint256",
          "name": "",
          "type": "uint256"
        }
      ],
      "name": "candidateList",
      "outputs": [
        {
          "internalType": "string",
          "name": "",
          "type": "string"
        }
      ],
      "stateMutability": "view",
      "type": "function",
      "constant": true
    },
    {
      "inputs": [
        {
          "internalType": "string",
          "name": "",
          "type": "string"
        }
      ],
      "name": "candidateVotes",
      "outputs": [
        {
          "internalType": "uint256",
          "name": "",
          "type": "uint256"
        }
      ],
      "stateMutability": "view",
      "type": "function",
      "constant": true
    },
    {
      "inputs": [],
      "name": "owner",
      "outputs": [
        {
          "internalType": "address",
          "name": "",
          "type": "address"
        }
      ],
      "stateMutability": "view",
      "type": "function",
      "constant": true
    },
    {
      "inputs": [],
      "name": "totalVotes",
      "outputs": [
        {
          "internalType": "uint256",
          "name": "",
          "type": "uint256"
        }
      ],
      "stateMutability": "view",
      "type": "function",
      "constant": true
    },
    {
      "inputs": [
        {
          "internalType": "uint256",
          "name": "",
          "type": "uint256"
        }
      ],
      "name": "vids",
      "outputs": [
        {
          "internalType": "string",
          "name": "",
          "type": "string"
        }
      ],
      "stateMutability": "view",
      "type": "function",
      "constant": true
    },
    {
      "inputs": [
        {
          "internalType": "string",
          "name": "_vid",
          "type": "string"
        },
        {
          "internalType": "string",
          "name": "_vote",
          "type": "string"
        },
        {
          "internalType": "string",
          "name": "_e1",
          "type": "string"
        },
        {
          "internalType": "string",
          "name": "_ts1",
          "type": "string"
        },
        {
          "internalType": "string",
          "name": "_e2",
          "type": "string"
        },
        {
          "internalType": "string",
          "name": "_ts2",
          "type": "string"
        }
      ],
      "name": "castVote",
      "outputs": [],
      "stateMutability": "nonpayable",
      "type": "function"
    },
    {
      "inputs": [
        {
          "internalType": "string",
          "name": "_vid",
          "type": "string"
        }
      ],
      "name": "getVote",
      "outputs": [
        {
          "internalType": "string",
          "name": "vid",
          "type": "string"
        },
        {
          "internalType": "string",
          "name": "vote",
          "type": "string"
        },
        {
          "internalType": "string",
          "name": "e1",
          "type": "string"
        },
        {
          "internalType": "string",
          "name": "ts1",
          "type": "string"
        },
        {
          "internalType": "string",
          "name": "e2",
          "type": "string"
        },
        {
          "internalType": "string",
          "name": "ts2",
          "type": "string"
        }
      ],
      "stateMutability": "view",
      "type": "function",
      "constant": true
    },
    {
      "inputs": [],
      "name": "getTotalVotes",
      "outputs": [
        {
          "internalType": "uint256",
          "name": "",
          "type": "uint256"
        }
      ],
      "stateMutability": "view",
      "type": "function",
      "constant": true
    },
    {
      "inputs": [
        {
          "internalType": "string",
          "name": "_candidate",
          "type": "string"
        }
      ],
      "name": "getCandidateVotes",
      "outputs": [
        {
          "internalType": "uint256",
          "name": "",
          "type": "uint256"
        }
      ],
      "stateMutability": "view",
      "type": "function",
      "constant": true
    },
    {
      "inputs": [],
      "name": "getAllCandidates",
      "outputs": [
        {
          "internalType": "string[]",
          "name": "",
          "type": "string[]"
        }
      ],
      "stateMutability": "view",
      "type": "function",
      "constant": true
    },
    {
      "inputs": [],
      "name": "getAllVIDs",
      "outputs": [
        {
          "internalType": "string[]",
          "name": "",
          "type": "string[]"
        }
      ],
      "stateMutability": "view",
      "type": "function",
      "constant": true
    },
    {
      "inputs": [
        {
          "internalType": "string",
          "name": "_vid",
          "type": "string"
        },
        {
          "internalType": "string",
          "name": "_expectedVote",
          "type": "string"
        }
      ],
      "name": "verifyVote",
      "outputs": [
        {
          "internalType": "bool",
          "name": "matches",
          "type": "bool"
        }
      ],
      "stateMutability": "view",
      "type": "function",
      "constant": true
    }
  ],
  "bytecode": "0x608060405234801561001057600080fd5b50600080546001600160a01b031916331790556112a6806100326000396000f3fe608060405234801561001057600080fd5b50600436106100b35760003560e01c8063ade31a9211610071578063ade31a921461016a578063b13c744b1461017f578063baa40e5c1461019f578063cf637bda146101c4578063d3fe94bf146101cc578063e962414f146101df57600080fd5b8062514d7a146100b857806307c9fa56146100f65780630d15fd77146101195780632e6997fe146101225780638da5cb5b146101375780639a0e7d6614610162575b600080fd5b6100e36100c6366004610d43565b805160208183018101805160048252928201919093012091525481565b6040519081526020015b60405180910390f35b610109610104366004610d80565b6101f2565b60405190151581526020016100ed565b6100e360035481565b61012a6102b2565b6040516100ed9190610e34565b60005461014a906001600160a01b031681565b6040516001600160a01b0390911681526020016100ed565b6003546100e3565b61017d610178366004610e96565b61038b565b005b61019261018d366004610f8b565b6106d9565b6040516100ed9190610fa4565b6101b26101ad366004610d43565b610785565b6040516100ed96959493929190610fbe565b61012a610b98565b6101926101da366004610f8b565b610c68565b6100e36101ed366004610d43565b610c78565b60006001836040516102049190611040565b9081526040519081900360200190206006015460ff1661026b5760405162461bcd60e51b815260206004820152601a60248201527f4e6f20766f746520666f756e6420666f7220746869732056494400000000000060448201526064015b60405180910390fd5b81805190602001206001846040516102839190611040565b90815260200160405180910390206001016040516102a19190611096565b604051809103902014905092915050565b60606005805480602002602001604051908101604052809291908181526020016000905b828210156103825783829060005260206000200180546102f59061105c565b80601f01602080910402602001604051908101604052809291908181526020018280546103219061105c565b801561036e5780601f106103435761010080835404028352916020019161036e565b820191906000526020600020905b81548152906001019060200180831161035157829003601f168201915b5050505050815260200190600101906102d6565b50505050905090565b6000546001600160a01b031633146104015760405162461bcd60e51b815260206004820152603360248201527f4f6e6c792074686520656c656374696f6e20617574686f726974792063616e206044820152723832b93337b936903a3434b99030b1ba34b7b760691b6064820152608401610262565b6001866040516104119190611040565b9081526040519081900360200190206006015460ff161561047f5760405162461bcd60e51b815260206004820152602260248201527f566f746520616c7265616479207265636f7264656420666f7220746869732056604482015261125160f21b6064820152608401610262565b6040518060e00160405280878152602001868152602001858152602001848152602001838152602001828152602001600115158152506001876040516104c59190611040565b908152604051908190036020019020815181906104e2908261115b565b50602082015160018201906104f7908261115b565b506040820151600282019061050c908261115b565b5060608201516003820190610521908261115b565b5060808201516004820190610536908261115b565b5060a0820151600582019061054b908261115b565b5060c091909101516006909101805460ff1916911515919091179055600280546001810182556000919091527f405787fa12a823e0f2b7631cc41b3ba8828b3321ca811111fa75cd3aa3bb5ace016105a3878261115b565b50600380549060006105b48361121b565b91905055506004856040516105c99190611040565b90815260405190819003602001902080549060006105e68361121b565b91905055506006856040516105fb9190611040565b9081526040519081900360200190205460ff1661068257600580546001810182556000919091527f036b6384b5eca791c62761152d0c79bb0604c104a5fb6f4eb0703f3154bb3db00161064e868261115b565b5060016006866040516106619190611040565b908152604051908190036020019020805491151560ff199092169190911790555b856040516106909190611040565b60405180910390207f6a169852b8dc8397fc8f086b1dc2d84a2decfc19ab96741d7ffb4f98a5c93c6c87876040516106c9929190611242565b60405180910390a2505050505050565b600581815481106106e957600080fd5b9060005260206000200160009150905080546107049061105c565b80601f01602080910402602001604051908101604052809291908181526020018280546107309061105c565b801561077d5780601f106107525761010080835404028352916020019161077d565b820191906000526020600020905b81548152906001019060200180831161076057829003601f168201915b505050505081565b60608060608060608060018760405161079e9190611040565b9081526040519081900360200190206006015460ff166108005760405162461bcd60e51b815260206004820152601a60248201527f4e6f20766f746520666f756e6420666f722074686973205649440000000000006044820152606401610262565b60006001886040516108129190611040565b908152602001604051809103902090508060000181600101826002018360030184600401856005018580546108469061105c565b80601f01602080910402602001604051908101604052809291908181526020018280546108729061105c565b80156108bf5780601f10610894576101008083540402835291602001916108bf565b820191906000526020600020905b8154815290600101906020018083116108a257829003601f168201915b505050505095508480546108d29061105c565b80601f01602080910402602001604051908101604052809291908181526020018280546108fe9061105c565b801561094b5780601f106109205761010080835404028352916020019161094b565b820191906000526020600020905b81548152906001019060200180831161092e57829003601f168201915b5050505050945083805461095e9061105c565b80601f016020809104026020016040519081016040528092919081815260200182805461098a9061105c565b80156109d75780601f106109ac576101008083540402835291602001916109d7565b820191906000526020600020905b8154815290600101906020018083116109ba57829003601f168201915b505050505093508280546109ea9061105c565b80601f0160208091040260200160405190810160405280929190818152602001828054610a169061105c565b8015610a635780601f10610a3857610100808354040283529160200191610a63565b820191906000526020600020905b815481529060010190602001808311610a4657829003601f168201915b50505050509250818054610a769061105c565b80601f0160208091040260200160405190810160405280929190818152602001828054610aa29061105c565b8015610aef5780601f10610ac457610100808354040283529160200191610aef565b820191906000526020600020905b815481529060010190602001808311610ad257829003601f168201915b50505050509150808054610b029061105c565b80601f0160208091040260200160405190810160405280929190818152602001828054610b2e9061105c565b8015610b7b5780601f10610b5057610100808354040283529160200191610b7b565b820191906000526020600020905b815481529060010190602001808311610b5e57829003601f168201915b505050505090509650965096509650965096505091939550919395565b60606002805480602002602001604051908101604052809291908181526020016000905b82821015610382578382906000526020600020018054610bdb9061105c565b80601f0160208091040260200160405190810160405280929190818152602001828054610c079061105c565b8015610c545780601f10610c2957610100808354040283529160200191610c54565b820191906000526020600020905b815481529060010190602001808311610c3757829003601f168201915b505050505081526020019060010190610bbc565b600281815481106106e957600080fd5b6000600482604051610c8a9190611040565b9081526020016040518091039020549050919050565b634e487b7160e01b600052604160045260246000fd5b600082601f830112610cc757600080fd5b813567ffffffffffffffff80821115610ce257610ce2610ca0565b604051601f8301601f19908116603f01168101908282118183101715610d0a57610d0a610ca0565b81604052838152866020858801011115610d2357600080fd5b836020870160208301376000602085830101528094505050505092915050565b600060208284031215610d5557600080fd5b813567ffffffffffffffff811115610d6c57600080fd5b610d7884828501610cb6565b949350505050565b60008060408385031215610d9357600080fd5b823567ffffffffffffffff80821115610dab57600080fd5b610db786838701610cb6565b93506020850135915080821115610dcd57600080fd5b50610dda85828601610cb6565b9150509250929050565b60005b83811015610dff578181015183820152602001610de7565b50506000910152565b60008151808452610e20816020860160208601610de4565b601f01601f19169290920160200192915050565b6000602080830181845280855180835260408601915060408160051b870101925083870160005b82811015610e8957603f19888603018452610e77858351610e08565b94509285019290850190600101610e5b565b5092979650505050505050565b60008060008060008060c08789031215610eaf57600080fd5b863567ffffffffffffffff80821115610ec757600080fd5b610ed38a838b01610cb6565b97506020890135915080821115610ee957600080fd5b610ef58a838b01610cb6565b96506040890135915080821115610f0b57600080fd5b610f178a838b01610cb6565b95506060890135915080821115610f2d57600080fd5b610f398a838b01610cb6565b94506080890135915080821115610f4f57600080fd5b610f5b8a838b01610cb6565b935060a0890135915080821115610f7157600080fd5b50610f7e89828a01610cb6565b9150509295509295509295565b600060208284031215610f9d57600080fd5b5035919050565b602081526000610fb76020830184610e08565b9392505050565b60c081526000610fd160c0830189610e08565b8281036020840152610fe38189610e08565b90508281036040840152610ff78188610e08565b9050828103606084015261100b8187610e08565b9050828103608084015261101f8186610e08565b905082810360a08401526110338185610e08565b9998505050505050505050565b60008251611052818460208701610de4565b9190910192915050565b600181811c9082168061107057607f821691505b60208210810361109057634e487b7160e01b600052602260045260246000fd5b50919050565b60008083546110a48161105c565b600182811680156110bc57600181146110d157611100565b60ff1984168752821515830287019450611100565b8760005260208060002060005b858110156110f75781548a8201529084019082016110de565b50505082870194505b50929695505050505050565b601f82111561115657600081815260208120601f850160051c810160208610156111335750805b601f850160051c820191505b818110156111525782815560010161113f565b5050505b505050565b815167ffffffffffffffff81111561117557611175610ca0565b61118981611183845461105c565b8461110c565b602080601f8311600181146111be57600084156111a65750858301515b600019600386901b1c1916600185901b178555611152565b600085815260208120601f198616915b828110156111ed578886015182559484019460019091019084016111ce565b508582101561120b5787850151600019600388901b60f8161c191681555b5050505050600190811b01905550565b60006001820161123b57634e487b7160e01b600052601160045260246000fd5b5060010190565b6040815260006112556040830185610e08565b82810360208401526112678185610e08565b9594505050505056fea26469706673582212201fffc4daacfd9448a9ef0507c9c7bb5e81ba5cd48c2ee3654c48f6ae7dbcea7a64736f6c63430008130033",
  "immutableReferences": {},
  "source": "// SPDX-License-Identifier: MIT\npragma solidity ^0.8.19;\n\n/**\n * @title VotingContract\n * @notice Stores votes from the Electronic Voting Machine (EVM) on-chain.\n *\n * ASSUMPTIONS:\n *  1. Only the contract owner (election authority) can write votes.\n *  2. Each Voter ID (VID) can only vote once (double-voting is rejected).\n *  3. Encrypted blobs (E1, E2) are stored as hex-encoded strings.\n *  4. Plaintext (VID, V) is stored for public verification / tallying.\n *  5. Timestamps (TS1, TS2) are stored as strings for flexibility\n *     (the ESP32 may send ISO-8601 or Unix epoch strings).\n */\ncontract VotingContract {\n\n    // ----------------------------------------------------------------\n    //  State\n    // ----------------------------------------------------------------\n\n    address public owner;\n\n    struct VoteRecord {\n        string vid;         // Voter ID (plaintext)\n        string vote;        // Candidate choice V (plaintext)\n        string e1;          // Encrypt(F1, F2, V, TS1) from ESP32\n        string ts1;         // Timestamp from ESP32\n        string e2;          // Encrypt(E1, TS2) from the database layer\n        string ts2;         // Timestamp of second encryption\n        bool   exists;      // Guard flag — true once a vote is recorded\n    }\n\n    /// @dev VID string → VoteRecord\n    mapping(string => VoteRecord) private voteRecords;\n\n    /// @dev Ordered list of all VIDs that have voted\n    string[] public vids;\n\n    /// @dev Total number of votes cast\n    uint256 public totalVotes;\n\n    /// @dev Candidate name → number of votes\n    mapping(string => uint256) public candidateVotes;\n\n    /// @dev Ordered list of unique candidate names\n    string[] public candidateList;\n\n    /// @dev Quick lookup to avoid duplicate entries in candidateList\n    mapping(string => bool) private candidateExists;\n\n    // ----------------------------------------------------------------\n    //  Events\n    // ----------------------------------------------------------------\n\n    event VoteCast(string indexed vidHash, string vid, string vote);\n\n    // ----------------------------------------------------------------\n    //  Modifiers\n    // ----------------------------------------------------------------\n\n    modifier onlyOwner() {\n        require(msg.sender == owner, \"Only the election authority can perform this action\");\n        _;\n    }\n\n    // ----------------------------------------------------------------\n    //  Constructor\n    // ----------------------------------------------------------------\n\n    constructor() {\n        owner = msg.sender;\n    }\n\n    // ----------------------------------------------------------------\n    //  Write Functions (onlyOwner)\n    // ----------------------------------------------------------------\n\n    /**\n     * @notice Record a single vote on-chain.\n     * @param _vid   Voter ID\n     * @param _vote  Candidate choice (plaintext)\n     * @param _e1    Encrypted blob from ESP32\n     * @param _ts1   Timestamp from ESP32\n     * @param _e2    Double-encrypted blob from database\n     * @param _ts2   Timestamp of second encryption\n     */\n    function castVote(\n        string memory _vid,\n        string memory _vote,\n        string memory _e1,\n        string memory _ts1,\n        string memory _e2,\n        string memory _ts2\n    ) external onlyOwner {\n        // Prevent double-voting\n        require(!voteRecords[_vid].exists, \"Vote already recorded for this VID\");\n\n        // Store the full record\n        voteRecords[_vid] = VoteRecord({\n            vid:    _vid,\n            vote:   _vote,\n            e1:     _e1,\n            ts1:    _ts1,\n            e2:     _e2,\n            ts2:    _ts2,\n            exists: true\n        });\n\n        // Track voter\n        vids.push(_vid);\n        totalVotes++;\n\n        // Update candidate tally\n        candidateVotes[_vote]++;\n\n        if (!candidateExists[_vote]) {\n            candidateList.push(_vote);\n            candidateExists[_vote] = true;\n        }\n\n        emit VoteCast(_vid, _vid, _vote);\n    }\n\n    // ----------------------------------------------------------------\n    //  Read / Verification Functions (public)\n    // ----------------------------------------------------------------\n\n    /**\n     * @notice Retrieve the full vote record for a given VID.\n     */\n    function getVote(string memory _vid)\n        external\n        view\n        returns (\n            string memory vid,\n            string memory vote,\n            string memory e1,\n            string memory ts1,\n            string memory e2,\n            string memory ts2\n        )\n    {\n        require(voteRecords[_vid].exists, \"No vote found for this VID\");\n        VoteRecord storage r = voteRecords[_vid];\n        return (r.vid, r.vote, r.e1, r.ts1, r.e2, r.ts2);\n    }\n\n    /**\n     * @notice Get the total number of votes cast.\n     */\n    function getTotalVotes() external view returns (uint256) {\n        return totalVotes;\n    }\n\n    /**\n     * @notice Get the vote count for a specific candidate.\n     */\n    function getCandidateVotes(string memory _candidate)\n        external\n        view\n        returns (uint256)\n    {\n        return candidateVotes[_candidate];\n    }\n\n    /**\n     * @notice Get the list of all candidates who received at least one vote.\n     */\n    function getAllCandidates() external view returns (string[] memory) {\n        return candidateList;\n    }\n\n    /**\n     * @notice Get the list of all Voter IDs that have voted.\n     */\n    function getAllVIDs() external view returns (string[] memory) {\n        return vids;\n    }\n\n    /**\n     * @notice Verify whether a voter's recorded vote matches the expected value.\n     * @param _vid          Voter ID to look up\n     * @param _expectedVote The vote value to compare against\n     * @return matches      True if the on-chain vote equals _expectedVote\n     */\n    function verifyVote(string memory _vid, string memory _expectedVote)\n        external\n        view\n        returns (bool matches)\n    {\n        require(voteRecords[_vid].exists, \"No vote found for this VID\");\n        matches = (keccak256(bytes(voteRecords[_vid].vote))\n                   == keccak256(bytes(_expectedVote)));\n    }\n}\n",
  "sourcePath": "C:\\Desktop\\Assignments\\Sem 6\\IoT\\Project\\Blockchain Software\\blockchain\\contracts\\VotingContract.sol",
  "compiler": {
    "name": "solc",
    "version": "0.8.19+commit.7dd6d404.Emscripten.clang"
  },
  "schemaVersion": "3.4.16",
  "updatedAt": "2026-04-09T08:40:31.907Z",
  "networkType": "ethereum",
  "devdoc": {
    "kind": "dev",
    "methods": {
      "castVote(string,string,string,string,string,string)": {
        "params": {
          "_e1": "Encrypted blob from ESP32",
          "_e2": "Double-encrypted blob from database",
          "_ts1": "Timestamp from ESP32",
          "_ts2": "Timestamp of second encryption",
          "_vid": "Voter ID",
          "_vote": "Candidate choice (plaintext)"
        }
      },
      "verifyVote(string,string)": {
        "params": {
          "_expectedVote": "The vote value to compare against",
          "_vid": "Voter ID to look up"
        },
        "returns": {
          "matches": "     True if the on-chain vote equals _expectedVote"
        }
      }
    },
    "stateVariables": {
      "candidateExists": {
        "details": "Quick lookup to avoid duplicate entries in candidateList"
      },
      "candidateList": {
        "details": "Ordered list of unique candidate names"
      },
      "candidateVotes": {
        "details": "Candidate name → number of votes"
      },
      "totalVotes": {
        "details": "Total number of votes cast"
      },
      "vids": {
        "details": "Ordered list of all VIDs that have voted"
      },
      "voteRecords": {
        "details": "VID string → VoteRecord"
      }
    },
    "title": "VotingContract",
    "version": 1
  },
  "userdoc": {
    "kind": "user",
    "methods": {
      "castVote(string,string,string,string,string,string)": {
        "notice": "Record a single vote on-chain."
      },
      "getAllCandidates()": {
        "notice": "Get the list of all candidates who received at least one vote."
      },
      "getAllVIDs()": {
        "notice": "Get the list of all Voter IDs that have voted."
      },
      "getCandidateVotes(string)": {
        "notice": "Get the vote count for a specific candidate."
      },
      "getTotalVotes()": {
        "notice": "Get the total number of votes cast."
      },
      "getVote(string)": {
        "notice": "Retrieve the full vote record for a given VID."
      },
      "verifyVote(string,string)": {
        "notice": "Verify whether a voter's recorded vote matches the expected value."
      }
    },
    "notice": "Stores votes from the Electronic Voting Machine (EVM) on-chain. ASSUMPTIONS:  1. Only the contract owner (election authority) can write votes.  2. Each Voter ID (VID) can only vote once (double-voting is rejected).  3. Encrypted blobs (E1, E2) are stored as hex-encoded strings.  4. Plaintext (VID, V) is stored for public verification / tallying.  5. Timestamps (TS1, TS2) are stored as strings for flexibility     (the ESP32 may send ISO-8601 or Unix epoch strings).",
    "version": 1
  }
}